{
  "_format": "hh-sol-artifact-1",
  "contractName": "Bridge",
  "sourceName": "contracts/Bridge.sol",
  "abi": [
    {
      "inputs": [
        {
          "internalType": "uint256",
          "name": "_claimValuePerDay",
          "type": "uint256"
        },
        {
          "internalType": "uint256",
          "name": "_subscriptionPrice",
          "type": "uint256"
        }
      ],
      "stateMutability": "nonpayable",
      "type": "constructor"
    },
    {
      "anonymous": false,
      "inputs": [
        {
          "indexed": false,
          "internalType": "address",
          "name": "subscriber",
          "type": "address"
        },
        {
          "indexed": false,
          "internalType": "uint256",
          "name": "chainId",
          "type": "uint256"
        }
      ],
      "name": "updateSubscription",
      "type": "event"
    },
    {
      "inputs": [],
      "name": "buySubscription",
      "outputs": [],
      "stateMutability": "payable",
      "type": "function"
    },
    {
      "inputs": [],
      "name": "claim",
      "outputs": [],
      "stateMutability": "nonpayable",
      "type": "function"
    },
    {
      "inputs": [],
      "name": "claimValuePerDay",
      "outputs": [
        {
          "internalType": "uint256",
          "name": "",
          "type": "uint256"
        }
      ],
      "stateMutability": "view",
      "type": "function"
    },
    {
      "inputs": [
        {
          "internalType": "address",
          "name": "",
          "type": "address"
        }
      ],
      "name": "mapSubscriptions",
      "outputs": [
        {
          "internalType": "uint256",
          "name": "endSubscription",
          "type": "uint256"
        },
        {
          "internalType": "uint256",
          "name": "lastClaimDate",
          "type": "uint256"
        },
        {
          "internalType": "uint256",
          "name": "claimAmount",
          "type": "uint256"
        }
      ],
      "stateMutability": "view",
      "type": "function"
    },
    {
      "inputs": [],
      "name": "setSubscription",
      "outputs": [],
      "stateMutability": "nonpayable",
      "type": "function"
    },
    {
      "inputs": [],
      "name": "subscriptionPrice",
      "outputs": [
        {
          "internalType": "uint256",
          "name": "",
          "type": "uint256"
        }
      ],
      "stateMutability": "view",
      "type": "function"
    }
  ],
  "bytecode": "0x608060405234801561001057600080fd5b50604051620011ed380380620011ed8339818101604052810190610034919061005e565b816001819055508060028190555050506100bb565b600081519050610058816100a4565b92915050565b6000806040838503121561007157600080fd5b600061007f85828601610049565b925050602061009085828601610049565b9150509250929050565b6000819050919050565b6100ad8161009a565b81146100b857600080fd5b50565b61112280620000cb6000396000f3fe6080604052600436106100555760003560e01c80631a5cd1881461005a5780632718b175146100995780634e71d92d146100a35780638da9459a146100ba578063bdc8e54c146100e5578063d20ba12614610110575b600080fd5b34801561006657600080fd5b50610081600480360381019061007c9190610c7d565b610127565b60405161009093929190610e14565b60405180910390f35b6100a1610151565b005b3480156100af57600080fd5b506100b861046d565b005b3480156100c657600080fd5b506100cf610656565b6040516100dc9190610df9565b60405180910390f35b3480156100f157600080fd5b506100fa61065c565b6040516101079190610df9565b60405180910390f35b34801561011c57600080fd5b50610125610662565b005b60006020528060005260406000206000915090508060000154908060010154908060020154905083565b600254341015610196576040517f08c379a000000000000000000000000000000000000000000000000000000000815260040161018d90610d99565b60405180910390fd5b60008060003373ffffffffffffffffffffffffffffffffffffffff1673ffffffffffffffffffffffffffffffffffffffff1681526020019081526020016000206000015414806102275750426000803373ffffffffffffffffffffffffffffffffffffffff1673ffffffffffffffffffffffffffffffffffffffff1681526020019081526020016000206000015411155b610266576040517f08c379a000000000000000000000000000000000000000000000000000000000815260040161025d90610d79565b60405180910390fd5b7f75f4b8a22911cd9fe53c44c9a1605c80d9d859e7c9df34f33af1125a0955eaea3346604051610297929190610d50565b60405180910390a160008060003373ffffffffffffffffffffffffffffffffffffffff1673ffffffffffffffffffffffffffffffffffffffff16815260200190815260200160002060010154141561033057426000803373ffffffffffffffffffffffffffffffffffffffff1673ffffffffffffffffffffffffffffffffffffffff168152602001908152602001600020600101819055505b426000803373ffffffffffffffffffffffffffffffffffffffff1673ffffffffffffffffffffffffffffffffffffffff16815260200190815260200160002060000154111580156103c3575060008060003373ffffffffffffffffffffffffffffffffffffffff1673ffffffffffffffffffffffffffffffffffffffff1681526020019081526020016000206000015414155b156103d1576103d0610830565b5b426000803373ffffffffffffffffffffffffffffffffffffffff1673ffffffffffffffffffffffffffffffffffffffff1681526020019081526020016000206001018190555062278d00426104269190610e5c565b6000803373ffffffffffffffffffffffffffffffffffffffff1673ffffffffffffffffffffffffffffffffffffffff16815260200190815260200160002060000181905550565b60008060003373ffffffffffffffffffffffffffffffffffffffff1673ffffffffffffffffffffffffffffffffffffffff1681526020019081526020016000206000015414156104f2576040517f08c379a00000000000000000000000000000000000000000000000000000000081526004016104e990610dd9565b60405180910390fd5b6104fa610830565b60008060003373ffffffffffffffffffffffffffffffffffffffff1673ffffffffffffffffffffffffffffffffffffffff16815260200190815260200160002060020154141561057f576040517f08c379a000000000000000000000000000000000000000000000000000000000815260040161057690610db9565b60405180910390fd5b60003390508073ffffffffffffffffffffffffffffffffffffffff166108fc6000803373ffffffffffffffffffffffffffffffffffffffff1673ffffffffffffffffffffffffffffffffffffffff168152602001908152602001600020600201549081150290604051600060405180830381858888f1935050505015801561060b573d6000803e3d6000fd5b5060008060003373ffffffffffffffffffffffffffffffffffffffff1673ffffffffffffffffffffffffffffffffffffffff1681526020019081526020016000206002018190555050565b60015481565b60025481565b60008060003373ffffffffffffffffffffffffffffffffffffffff1673ffffffffffffffffffffffffffffffffffffffff1681526020019081526020016000206001015414156106f357426000803373ffffffffffffffffffffffffffffffffffffffff1673ffffffffffffffffffffffffffffffffffffffff168152602001908152602001600020600101819055505b426000803373ffffffffffffffffffffffffffffffffffffffff1673ffffffffffffffffffffffffffffffffffffffff1681526020019081526020016000206000015411158015610786575060008060003373ffffffffffffffffffffffffffffffffffffffff1673ffffffffffffffffffffffffffffffffffffffff1681526020019081526020016000206000015414155b1561079457610793610830565b5b426000803373ffffffffffffffffffffffffffffffffffffffff1673ffffffffffffffffffffffffffffffffffffffff1681526020019081526020016000206001018190555062278d00426107e99190610e5c565b6000803373ffffffffffffffffffffffffffffffffffffffff1673ffffffffffffffffffffffffffffffffffffffff16815260200190815260200160002060000181905550565b600080426000803373ffffffffffffffffffffffffffffffffffffffff1673ffffffffffffffffffffffffffffffffffffffff168152602001908152602001600020600001541061099a576018603c806000803373ffffffffffffffffffffffffffffffffffffffff1673ffffffffffffffffffffffffffffffffffffffff16815260200190815260200160002060010154426108cd9190610f3d565b6108d79190610eb2565b6108e19190610eb2565b6108eb9190610eb2565b9150600154826108fb9190610ee3565b91506018603c806000803373ffffffffffffffffffffffffffffffffffffffff1673ffffffffffffffffffffffffffffffffffffffff168152602001908152602001600020600101544261094f9190610f3d565b6109599190610eb2565b6109639190610eb2565b61096d9190610eb2565b90506018603c808361097f9190610ee3565b6109899190610ee3565b6109939190610ee3565b9050610b37565b6018603c806000803373ffffffffffffffffffffffffffffffffffffffff1673ffffffffffffffffffffffffffffffffffffffff168152602001908152602001600020600101546000803373ffffffffffffffffffffffffffffffffffffffff1673ffffffffffffffffffffffffffffffffffffffff16815260200190815260200160002060000154610a2d9190610f3d565b610a379190610eb2565b610a419190610eb2565b610a4b9190610eb2565b915060015482610a5b9190610ee3565b91506018603c806000803373ffffffffffffffffffffffffffffffffffffffff1673ffffffffffffffffffffffffffffffffffffffff168152602001908152602001600020600101546000803373ffffffffffffffffffffffffffffffffffffffff1673ffffffffffffffffffffffffffffffffffffffff16815260200190815260200160002060000154610af09190610f3d565b610afa9190610eb2565b610b049190610eb2565b610b0e9190610eb2565b90506018603c8083610b209190610ee3565b610b2a9190610ee3565b610b349190610ee3565b90505b60008214610c6457806000803373ffffffffffffffffffffffffffffffffffffffff1673ffffffffffffffffffffffffffffffffffffffff16815260200190815260200160002060010154610b8c9190610e5c565b6000803373ffffffffffffffffffffffffffffffffffffffff1673ffffffffffffffffffffffffffffffffffffffff16815260200190815260200160002060010181905550816000803373ffffffffffffffffffffffffffffffffffffffff1673ffffffffffffffffffffffffffffffffffffffff16815260200190815260200160002060020154610c1e9190610e5c565b6000803373ffffffffffffffffffffffffffffffffffffffff1673ffffffffffffffffffffffffffffffffffffffff168152602001908152602001600020600201819055505b5050565b600081359050610c77816110d5565b92915050565b600060208284031215610c8f57600080fd5b6000610c9d84828501610c68565b91505092915050565b610caf81610f71565b82525050565b6000610cc2602283610e4b565b9150610ccd8261100b565b604082019050919050565b6000610ce5601183610e4b565b9150610cf08261105a565b602082019050919050565b6000610d08601383610e4b565b9150610d1382611083565b602082019050919050565b6000610d2b601e83610e4b565b9150610d36826110ac565b602082019050919050565b610d4a81610fa3565b82525050565b6000604082019050610d656000830185610ca6565b610d726020830184610d41565b9392505050565b60006020820190508181036000830152610d9281610cb5565b9050919050565b60006020820190508181036000830152610db281610cd8565b9050919050565b60006020820190508181036000830152610dd281610cfb565b9050919050565b60006020820190508181036000830152610df281610d1e565b9050919050565b6000602082019050610e0e6000830184610d41565b92915050565b6000606082019050610e296000830186610d41565b610e366020830185610d41565b610e436040830184610d41565b949350505050565b600082825260208201905092915050565b6000610e6782610fa3565b9150610e7283610fa3565b9250827fffffffffffffffffffffffffffffffffffffffffffffffffffffffffffffffff03821115610ea757610ea6610fad565b5b828201905092915050565b6000610ebd82610fa3565b9150610ec883610fa3565b925082610ed857610ed7610fdc565b5b828204905092915050565b6000610eee82610fa3565b9150610ef983610fa3565b9250817fffffffffffffffffffffffffffffffffffffffffffffffffffffffffffffffff0483118215151615610f3257610f31610fad565b5b828202905092915050565b6000610f4882610fa3565b9150610f5383610fa3565b925082821015610f6657610f65610fad565b5b828203905092915050565b6000610f7c82610f83565b9050919050565b600073ffffffffffffffffffffffffffffffffffffffff82169050919050565b6000819050919050565b7f4e487b7100000000000000000000000000000000000000000000000000000000600052601160045260246000fd5b7f4e487b7100000000000000000000000000000000000000000000000000000000600052601260045260246000fd5b7f54686520737562736372697074696f6e20686173206e6f7420656e646564207960008201527f6574000000000000000000000000000000000000000000000000000000000000602082015250565b7f496e636f727265637420616d6f756e7421000000000000000000000000000000600082015250565b7f596f752068617665206e6f207265776172647300000000000000000000000000600082015250565b7f596f7520646f206e6f742068617665206120737562736372697074696f6e0000600082015250565b6110de81610f71565b81146110e957600080fd5b5056fea264697066735822122093b732f05bc7a29c0f69034ec70f330d7ee333e10aa9f27e2b5fb000456c73cd64736f6c63430008040033",
  "linkReferences": {},
  "deployedLinkReferences": {}
}